:100000000C943A000C944F000C944F000C944F0049
:100010000C944F000C944F000C944F000C944F0024
:100020000C944F000C944F000C944F000C944F0014
:100030000C944F000C944F000C944F000C944F0004
:100040000C944F000C944F000C944F000C944F00F4
:100050000C944F00F500D700D900DB00DD00DF0075
:10006000E100E300E500E700E900EB00ED00EF0050
:10007000F100F30011241FBECFE5D8E0DEBFCDBFF5
:1000800010E0A0E6B0E0E2E3F5E002C005900D92DA
:10009000AA3CB107D9F70E94C8010C9497020C94AE
:1000A0000000E199FECF9FBB8EBB6DBBE29AE19A47
:1000B0000895E199FECF9FBB8EBBE09A8DB3089562
:1000C000EF92FF920F931F93CF93DF938C017B01ED
:1000D000EA01209751F0F70161917F01C8010E9468
:1000E00051000F5F1F4F2197B1F7DF91CF911F9103
:1000F0000F91FF90EF900895EF92FF920F931F934F
:10010000CF93DF938C017B01EA01209751F0C80166
:100110000E945900F70181937F010F5F1F4F2197C4
:10012000B1F7DF91CF911F910F91FF90EF9008955C
:10013000A0E1B0E0F0EF60E070E0862FF7BB9D013A
:10014000062E02C0220F331F0A94E2F7209528BB27
:10015000B09B0FC021E030E0922F46B3E22F50E079
:10016000022E02C0559547950A94E2F740FD3FC024
:1001700002C0E0E090E041E050E002C0440F551FB3
:10018000EA95E2F726B330E024233523232BD1F37D
:100190008F5F990F990F890F482F50E0FA0131971F
:1001A000E031F10588F5E65DFF4F0C94880282E3AB
:1001B000089583E3089581E6089584E3089585E32F
:1001C000089586E3089582E6089587E3089588E315
:1001D000089589E3089583E608958AE2089580E307
:1001E000089583E2089584E6089581E308952F5FDA
:1001F0003F4F2430310509F0AFCF6F5F7F4F643040
:10020000710509F09ACF97CF089590989198E9EFEA
:10021000F0E03197F1F700C00000939AE9EFF0E0C9
:100220003197F1F700C00000982F907F95BBE9EF60
:10023000F0E03197F1F700C000009398E9EFF0E0AB
:100240003197F1F700C00000939AE9EFF0E03197A1
:10025000F1F700C00000F0E18F9FC001112485BBC1
:1002600089EF90E00197F1F700C000009398E9EF63
:10027000F0E03197F1F700C00000089581B38B6082
:1002800081BB84B3806F84BB82E00E94050188E259
:100290000E9405018CE00E94050181E00E94050199
:1002A0008CE00E9405010895909A9198E9EFF0E0A2
:1002B0003197F1F700C00000939AE9EFF0E0319731
:1002C000F1F700C00000982F907F95BBE9EFF0E0B8
:1002D0003197F1F700C000009398E9EFF0E0319713
:1002E000F1F700C00000939AE9EFF0E03197F1F7E1
:1002F00000C00000F0E18F9FC001112485BB89EF91
:1003000090E00197F1F700C000009398E9EFF0E06A
:100310003197F1F700C000000895CF93DF93EC010F
:100320008881882331F021960E945401899181119E
:10033000FBCFDF91CF910895823031F0833031F0DF
:10034000813029F4605C03C0605F01C0605B862F70
:1003500080680E9405010895CF93DF93EA010E940F
:100360009C01CE010E948D01DF91CF91089581E023
:100370000E94050108951DBC1CBC23EC39E037BD6B
:1003800026BD9BBD8ABD82E88FBD8BE18EBD0895E1
:10039000DF92EF92FF920F931F93CF93DF93CDB72E
:1003A000DEB72A970FB6F894DEBF0FBECDBF80E848
:1003B00084BF84BF8D9A44E050E060E670E080E145
:1003C00090E00E9460000E943E0187EA91E601975A
:1003D000F1F700C000000E94B70185E690E00E949E
:1003E0008D01CE0101967C01D82E0F2D0E94B70100
:1003F00086E790E00E948D0147E850E060E081E0F0
:100400000E94AC0168E081E00E949C01198210E02A
:100410000E949800212F237030E0F701E20FF31FB4
:100420008083E2E0F0E0EC0FFD1FE20FF31F10828B
:100430001F5F68E081E00E949C018D2D902F0E943B
:100440008D01143029F79FE926E881E09150204082
:100450008040E1F700C000000E94B70144E050E096
:10046000BE016A5F7F4F80E190E00E947C00BE0188
:100470006A5F7F4F8D2D902F0E948E02892BA1F0F5
:100480008FEA90E00E948D014FEB50E063E081E045
:100490000E94AC019FEB27E289E091502040804010
:1004A000E1F700C00000A2CF80E990E00E948D013A
:1004B0008BEB90E00E94BB019FEB27E289E091501B
:1004C00020408040E1F700C000000E94B7018FE9A2
:1004D00090E00E948D018CE790E00E94BB019FE3B9
:1004E00022E48FE0915020408040E1F700C00000FE
:1004F00080E090E02A960FB6F894DEBF0FBECDBF25
:10050000DF91CF911F910F91FF90EF90DF900895B1
:10051000EE0FFF1F0590F491E02D0994FB01DC0123
:100520008D91019080190110D9F3990B0895F894D9
:02053000FFCFFB
:100532003132333400636865636B206F7574206CED
:10054200696768747300656E7465722074686520EB
:10055200707373777264007073737772643A2000F9
:1005620067617465206F70656E73206E6F770067C8
:100572006174652077696C6C20636C6F73650057DA
:10058200524F4E4720505353575244203A2800743A
:0A059200727920616761696E000054
:00000001FF
