:100000000C943A000C944F000C944F000C944F0049
:100010000C944F000C944F000C944F000C944F0024
:100020000C944F000C944F000C944F000C944F0014
:100030000C944F000C944F000C944F000C944F0004
:100040000C944F000C944F000C944F000C944F00F4
:100050000C944F004F013101330135013701390153
:100060003B013D013F014101430145014701490178
:100070004B014D0111241FBECFE5D8E0DEBFCDBF3F
:1000800010E0A0E6B0E0EAEBF9E002C005900D92C6
:10009000A43DB107D9F70E948B020C94DB040C94A9
:1000A0000000379A369A089596B1987F96B98031B4
:1000B000B9F038F4843071F0883071F08230F1F4A6
:1000C00007C0803499F08038A9F08032B9F40AC0B2
:1000D000309A0895319A089586B1836086B908955B
:1000E000329A089586B1856086B9089586B1866092
:1000F00086B9089586B1876086B9089586B186B9B4
:100100000895D09887B1807E87B987B187B987B1C4
:10011000806C87B980E80E9454003D9A0895369912
:10012000FECF85B190E0880F991F880F991F089521
:100130009AB321E030E0082E02C0220F331F0A9448
:10014000E2F7209529232ABB97B1907E97B997B102
:10015000892B87B90895E199FECF9FBB8EBB6DBBFC
:10016000E29AE19A0895E199FECF9FBB8EBBE09A97
:100170008DB30895EF92FF920F931F93CF93DF9368
:100180008C017B01EA01209751F0F70161917F0119
:10019000C8010E94AB000F5F1F4F2197B1F7DF919D
:1001A000CF911F910F91FF90EF900895EF92FF92E2
:1001B0000F931F93CF93DF938C017B01EA0120976C
:1001C00051F0C8010E94B300F70181937F010F5FD6
:1001D0001F4F2197B1F7DF91CF911F910F91FF90A2
:1001E000EF900895A0E1B0E0F0EF60E070E0862FBE
:1001F000F7BB9D01062E02C0220F331F0A94E2F7BF
:10020000209528BBB09B0FC021E030E0922F46B371
:10021000E22F50E0022E02C0559547950A94E2F76E
:1002200040FD3FC002C0E0E090E041E050E002C08D
:10023000440F551FEA95E2F726B330E02423352317
:10024000232BD1F38F5F990F990F890F482F50E01F
:10025000FA013197E031F10588F5E65DFF4F0C9426
:10026000970482E3089583E3089581E6089584E383
:10027000089585E3089586E3089582E6089587E367
:10028000089588E3089589E3089583E608958AE24E
:10029000089580E3089583E2089584E6089581E354
:1002A00008952F5F3F4F2430310509F0AFCF6F5FC6
:1002B0007F4F6430710509F09ACF97CF08959098D9
:1002C0009198E9EFF0E03197F1F700C00000939AC0
:1002D000E9EFF0E03197F1F700C00000982F907F30
:1002E0009BBBE9EFF0E03197F1F700C00000939875
:1002F000E9EFF0E03197F1F700C00000939AE9EFE1
:10030000F0E03197F1F700C00000F0E18F9FC001ED
:1003100011248BBB89EF90E00197F1F700C000003A
:100320009398E9EFF0E03197F1F700C000000895ED
:1003300081B38B6081BB8AB3806F8ABB82E00E94ED
:100340005F0188E20E945F018CE00E945F0181E012
:100350000E945F018CE00E945F010895909A91983D
:10036000E9EFF0E03197F1F700C00000939AE9EF70
:10037000F0E03197F1F700C00000982F907F9BBB11
:10038000E9EFF0E03197F1F700C000009398E9EF52
:10039000F0E03197F1F700C00000939AE9EFF0E048
:1003A0003197F1F700C00000F0E18F9FC0011124E8
:1003B0008BBB89EF90E00197F1F700C000009398A4
:1003C000E9EFF0E03197F1F700C000000895CF9316
:1003D000DF93EC018881882331F021960E94AE01E1
:1003E00089918111FBCFDF91CF910895823031F057
:1003F000833031F0813029F4605C03C0605F01C05C
:10040000605B862F80680E945F010895CF93DF9321
:10041000EA010E94F601CE010E94E701DF91CF912F
:100420000895CF93DF93CDB7DEB760970FB6F894FA
:10043000DEBF0FBECDBF4AE0BE016F5F7F4F0E949F
:10044000A604CE0101960E94E70160960FB6F894CB
:10045000DEBF0FBECDBFDF91CF91089581E00E9436
:100460005F01089584B38F6084BB85B3807F85BBB3
:100470000895AC01181619062CF00895903119F45E
:1004800091E001C091E025B3207F25BB25B3892FE2
:100490008F70282B25BBE3ECF9E03197F1F700C012
:1004A0000000990F4150510949F70895AC01181601
:1004B00019062CF00895911103C098E001C091E055
:1004C00025B3207F25BB25B3892F8F70282B25BB13
:1004D000E3ECF9E03197F1F700C000009695415048
:1004E000510949F708950E94810080E00E94980018
:1004F0000E9451000E948F00BC0180E090E00E94A9
:100500009C0320E030E040E85EE30E9402040E9489
:100510006D03862F0895CF93DF93CDB7DEB72A976B
:100520000FB6F894DEBF0FBECDBF80E884BF84BF96
:10053000D3988A9A929A3F983E9887B1836087B9F8
:10054000379A8D9A44E050E060E670E080E190E0F8
:100550000E94BA000E9498010E94320287EA91E646
:100560000197F1F700C00000CE0101967C01D82E62
:100570000F2D0E942E0285E690E00E94E701369A38
:100580009FE926E881E0915020408040E1F700C0DB
:10059000000024B185B190E0982F8827820F911D2B
:1005A0008436910510F4929801C0929A9FEB27E24D
:1005B00089E0915020408040E1F700C000000E9497
:1005C0002E0286E790E00E94E7010E94730290E00D
:1005D0000E9411029FEB27E289E091502040804069
:1005E000E1F700C000000E942E0281E890E00E9426
:1005F000E70142E950E060E081E00E94060268E025
:1006000081E00E94F601198210E00E94F200212F81
:10061000237030E0F701E20FF31F8083E2E0F0E0A7
:10062000EC0FFD1FE20FF31F10821F5F68E081E0F7
:100630000E94F6018D2D902F0E94E701143029F7BA
:100640009FE926E881E0915020408040E1F700C01A
:1006500000000E942E0244E050E0BE016A5F7F4F1E
:1006600080E190E00E94D600BE016A5F7F4F8D2D31
:10067000902F0E949D04892BE1F48BE990E00E9469
:10068000E70180E098E00E9456029FEB27E289E0B4
:10069000915020408040E1F700C000000E942E02EF
:1006A0008AEA90E00E94E70180E098E00E94390227
:1006B00060CF8AEB90E00E94E7014AEC50E063E0F3
:1006C00081E00E9406029FEB27E289E091502040E2
:1006D0008040E1F700C0000086CF0E94E10388F06F
:1006E0009F5798F0B92F9927B751B0F0E1F0660FF6
:1006F000771F881F991F1AF0BA95C9F714C0B13037
:1007000091F00E94FB03B1E008950C94FB03672F66
:10071000782F8827B85F39F0B93FCCF38695779565
:100720006795B395D9F73EF490958095709561954E
:100730007F4F8F4F9F4F0895E89409C097FB3EF479
:1007400090958095709561957F4F8F4F9F4F99231E
:10075000A9F0F92F96E9BB279395F695879577959C
:100760006795B795F111F8CFFAF4BB0F11F460FF5C
:100770001BC06F5F7F4F8F4F9F4F16C0882311F0B4
:1007800096E911C0772321F09EE8872F762F05C0C8
:10079000662371F096E8862F70E060E02AF09A9563
:1007A000660F771F881FDAF7880F9695879597F958
:1007B000089557FD9058440F551F59F05F3F71F051
:1007C0004795880F97FB991F61F09F3F79F08795B8
:1007D0000895121613061406551FF2CF4695F1DF41
:1007E00008C0161617061806991FF1CF86957105D1
:1007F000610508940895E894BB2766277727CB0105
:1008000097F908950E9415040C9486040E947804B8
:1008100038F00E947F0420F0952311F00C946F04AF
:100820000C94750411240C94FC030E94D90370F3FA
:10083000959FC1F3950F50E0551F629FF001729F85
:10084000BB27F00DB11D639FAA27F00DB11DAA1F94
:10085000649F6627B00DA11D661F829F2227B00DE1
:10086000A11D621F739FB00DA11D621F839FA00D6C
:10087000611D221F749F3327A00D611D231F849FBC
:10088000600D211D822F762F6A2F11249F57504013
:100890009AF0F1F088234AF0EE0FFF1FBB1F661F8E
:1008A000771F881F91505040A9F79E3F510580F057
:1008B0000C946F040C94FC035F3FE4F3983ED4F374
:1008C000869577956795B795F795E7959F5FC1F7FB
:1008D000FE2B880F911D9695879597F9089597F9A6
:1008E0009F6780E870E060E008959FEF80EC0895D6
:1008F00000240A94161617061806090608950024FF
:100900000A9412161306140605060895092E039478
:10091000000C11F4882352F0BB0F40F4BF2B11F4EC
:1009200060FF04C06F5F7F4F8F4F9F4F0895EE0FA2
:10093000FF1F0590F491E02D0994FB01DC018D91DE
:10094000019080190110D9F3990B0895BB274A3003
:1009500031F4992322F4BDE2909581959F4F0C9438
:10096000B204BB27FB015527AA27880F991FAA1F8E
:10097000A41710F0A41B83955051B9F7A05DAA33BA
:1009800008F0A95DA193009779F7B111B193119285
:10099000CB010C94CB04DC01FC01672F7191772310
:1009A000E1F7329704C07C916D9370836291AE172A
:0A09B000BF07C8F30895F894FFCFC5
:1009BA003132333400636865636B206F7574206C61
:1009CA0069676874730074656D70206973203A20D2
:1009DA0000656E746572207468652070737377722F
:1009EA0064007073737772643A20006761746520DB
:1009FA006F70656E73206E6F77006761746520771C
:100A0A00696C6C20636C6F73650057524F4E4720B8
:100A1A00505353575244203A280074727920616720
:040A2A0061696E0090
:00000001FF
