S0120000776F726B6265616E63682E73726563EE
S11300000C9444000C947B030C9461000C94EB025C
S11300100C9461000C9461000C9461000C946100D8
S11300200C9461000C9461000C9461000C946100C8
S11300300C9461000C9461000C9461000C946100B8
S11300400C9461000C9461000C9461000C946100A8
S11300500C9461003401160118011A011C011E01DF
S1130060200122012401260128012A012C012E014C
S113007030013201A103BD03D903F2030B042404AC
S11300803D0456046F04880411241FBECFE5D8E054
S1130090DEBFCDBF11E0A0E6B0E0E4E4FCE002C0C6
S11300A005900D92AA33B107D9F721E0AAE3B1E094
S11300B001C01D92AD34B207E1F70E946E020C94A8
S11300C020060C940000379A369A089596B1987FCA
S11300D096B98031B9F038F4843071F0883071F019
S11300E08230F1F407C0803499F08038A9F080326E
S11300F0B9F40AC0309A0895319A089586B183609C
S113010086B90895329A089586B1856086B90895AE
S113011086B1866086B9089586B1876086B90895E8
S113012086B186B90895D09887B1807E87B987B1A2
S113013087B987B1806C87B980E80E9466003D9AD0
S113014008953699FECF85B190E0880F991F880FE6
S1130150991F08959AB321E030E0082E02C0220FBF
S1130160331F0A94E2F7209529232ABB97B1907E86
S113017097B997B1892B87B90895E199FECF9FBBB1
S11301808EBB6DBBE29AE19A0895E199FECF9FBBC5
S11301908EBBE09A8DB30895EF92FF920F931F9355
S11301A0CF93DF938C017B01EA01209751F0F70193
S11301B061917F01C8010E94BD000F5F1F4F21970D
S11301C0B1F7DF91CF911F910F91FF90EF900895B8
S11301D0EF92FF920F931F93CF93DF938C017B01D8
S11301E0EA01209751F0C8010E94C500F7018193EC
S11301F07F010F5F1F4F2197B1F7DF91CF911F91BF
S11302000F91FF90EF90089587B38F7087BB86B3EB
S113021082958F708F5F482F50E0FA013197E0315B
S1130220F10518F5E65DFF4F0C94DC0582E30895B3
S113023083E3089581E6089584E3089585E30895AA
S113024086E3089582E6089587E3089588E3089590
S113025089E3089583E608958AE2089580E3089582
S113026083E2089584E6089581E30895DE98EFEC2F
S1130270F7E03197F1F700C00000DF9AEFECF7E008
S11302803197F1F700C0000095B315BA95B3282F44
S1130290207F922B95BBEFECF7E03197F1F700C08C
S11302A00000DF98EFECF7E03197F1F700C00000B1
S11302B0DF9AEFECF7E03197F1F700C0000095B357
S11302C015BA25B3F0E18F9FC0011124822B85BBA1
S11302D08FEC97E00197F1F700C00000DF98EFEC96
S11302E0F7E03197F1F700C0000008958AB3806CFD
S11302F08ABB84B3806F84BB82E00E94360188E2AB
S11303000E9436018CE00E94360181E00E94360191
S11303108CE00E9436010895DE9AEFECF7E0319705
S1130320F1F700C00000DF9AEFECF7E03197F1F746
S113033000C0000095B315BA95B3282F207F922BE7
S113034095BBEFECF7E03197F1F700C00000DF98C0
S1130350EFECF7E03197F1F700C00000DF9AEFEC23
S1130360F7E03197F1F700C0000095B315BA25B353
S1130370F0E18F9FC0011124822B85BB8FEC97E0A5
S11303800197F1F700C00000DF98EFECF7E0319738
S1130390F1F700C000000895CF93DF93EC0188814A
S11303A0882331F021960E948C0189918111FBCF21
S11303B0DF91CF910895823031F0833031F0813074
S11303C029F4605C03C0605F01C0605B862F8068B5
S11303D00E9436010895CF93DF93EA010E94DB0166
S11303E0CE010E94CC01DF91CF910895CF93DF938A
S11303F0CDB7DEB760970FB6F894DEBF0FBECDBFA2
S11304004AE0BE016F5F7F4F0E94EB05CE0101966B
S11304100E94CC0160960FB6F894DEBF0FBECDBF2C
S1130420DF91CF91089581E00E94360108958D9A5D
S11304301DBC1CBC83EC99E097BD86BD8FB5826062
S11304408FBD8EB58B618EBD08951DBC1CBC9BBD3C
S11304508ABD8FB580688FBD08950E94930080E0A7
S11304600E94AA000E9463000E94A100BC0180E0D7
S113047090E00E94E10420E030E040E85EE30E9466
S113048047050E94B204862F08950E94930081E0DC
S11304900E94AA000E9463000E94A1000895B89AD5
S11304A0C09ABB9AC39A8F9A979A8E9A969A8C9A64
S11304B0949A0895D298D398D498D59808952FE70C
S11304C088E391E0215080409040E1F700C00000B3
S11304D089B3869586958F7090E0089580E884BFEF
S11304E084BF0E9476010E94130280E690E00E947D
S11304F0CC012FEF84E39CE0215080409040E1F751
S113050000C000008BB780628BBF84B7806484BF57
S11305100E9413028BE690E00E94CC012FEF84E34B
S11305209CE0215080409040E1F700C000008BB770
S113053080648BBF85B7816085BF85B7826085BFC6
S11305408AB780648ABF78940E945A020E94170274
S113055044E050E066E770E080E190E00E94CC0067
S11305602FEF80E792E0215080409040E1F700C0F7
S113057000000E944F020E9413024BE750E060E02B
S113058081E00E94EB010E942D0290E00E94F6019E
S113059042E850E068E081E00E94EB010E944502DD
S11305A090E090933C0180933B010E94F60180917E
S11305B03B0190913C018536910514F0C09801C02F
S11305C0C09A2FEF89E698E1215080409040E1F7EE
S11305D000C00000D0CF1F920F920FB60F921124CB
S11305E02F933F934F935F936F937F938F939F9337
S11305F0AF93BF93CF93DF93EF93FF9346E850E01D
S113060060E080E00E94EB01C0913A01D0E00E94DA
S11306100401CB5BDE4F8883E0913A01F0E0EB5BB1
S1130620FE4F118245E451E06AE080E00E94EB0154
S113063080913A018F5F843018F480933A0148C066
S113064010923A012FEF84E39CE0215080409040C7
S1130650E1F700C000000E94130244E050E06DE3A3
S113066071E080E190E00E94E8006DE371E085E4D0
S113067091E00E94E205892BB1F481E990E00E94A7
S1130680CC0182E391E00E9425022FEF81E19AE7F9
S1130690215080409040E1F700C000008EE390E0DC
S11306A00E94250213C080EA90E00E94CC0140EB36
S11306B050E063E081E00E94EB012FEF89E698E1CE
S11306C0215080409040E1F700C000000E941302D6
S11306D0FF91EF91DF91CF91BF91AF919F918F9156
S11306E07F916F915F914F913F912F910F900FBE2A
S11306F00F901F9018951F920F920FB60F9211240E
S11307002F933F934F935F936F937F938F939F9315
S1130710AF93BF93EF93FF93F8940E945F0290937B
S11307204B0180934A010E941302E0914A01F09127
S11307304B01EA30F10508F003C1E65CFF4F0C946D
S1130740DC058AEB90E00E94CC0160E081E00E942D
S1130750DB0180914A0190914B010E94F60182E3F2
S113076091E00E9425022FEF89E698E12150804014
S11307709040E1F700C00000E3C084EC90E00E94E8
S1130780CC0160E081E00E94DB0180914A019091FC
S11307904B010E94F6018EE390E00E9425022FEFA8
S11307A089E698E1215080409040E1F700C00000C4
S11307B0C7C08FEC90E00E94CC0160E081E00E9411
S11307C0DB0180914A0190914B010E94F601C3988C
S11307D02FEF89E698E1215080409040E1F700C076
S11307E00000AEC089ED90E00E94CC0160E081E0A1
S11307F00E94DB0180914A0190914B010E94F60115
S1130800C39A2FEF89E698E1215080409040E1F7A8
S113081000C0000095C084EE90E00E94CC0160E02E
S113082081E00E94DB0180914A0190914B010E947A
S1130830F60194982FEF89E698E12150804090408A
S1130840E1F700C000007CC086EF90E00E94CC017C
S113085060E081E00E94DB0180914A0190914B01AC
S11308600E94F601949A2FEF89E698E12150804086
S11308709040E1F700C0000063C089E091E00E946D
S1130880CC0160E081E00E94DB0180914A019091FB
S11308904B010E94F60197982FEF89E698E12150C9
S11308A080409040E1F700C000004AC084E191E03C
S11308B00E94CC0160E081E00E94DB0180914A014A
S11308C090914B010E94F601979A2FEF89E698E1E7
S11308D0215080409040E1F700C0000031C080E228
S11308E091E00E94CC0160E081E00E94DB018091F4
S11308F04A0190914B010E94F60196982FEF89E6E8
S113090098E1215080409040E1F700C0000018C0F9
S11309108CE291E00E94CC0160E081E00E94DB0166
S113092080914A0190914B010E94F601969A2FEF13
S113093089E698E1215080409040E1F700C0000032
S11309407894FF91EF91BF91AF919F918F917F9197
S11309506F915F914F913F912F910F900FBE0F9028
S11309601F9018950E94260588F09F5798F0B92F7C
S11309709927B751B0F0E1F0660F771F881F991FD0
S11309801AF0BA95C9F714C0B13091F00E9440052D
S1130990B1E008950C944005672F782F8827B85F3D
S11309A039F0B93FCCF3869577956795B395D9F728
S11309B03EF490958095709561957F4F8F4F9F4F32
S11309C00895E89409C097FB3EF49095809570953E
S11309D061957F4F8F4F9F4F9923A9F0F92F96E987
S11309E0BB279395F695879577956795B795F111FC
S11309F0F8CFFAF4BB0F11F460FF1BC06F5F7F4F99
S1130A008F4F9F4F16C0882311F096E911C07723AA
S1130A1021F09EE8872F762F05C0662371F096E8B3
S1130A20862F70E060E02AF09A95660F771F881F82
S1130A30DAF7880F9695879597F9089557FD90589A
S1130A40440F551F59F05F3F71F04795880F97FB8E
S1130A50991F61F09F3F79F0879508951216130648
S1130A601406551FF2CF4695F1DF08C01616170677
S1130A701806991FF1CF86957105610508940895AC
S1130A80E894BB2766277727CB0197F908950E943E
S1130A905A050C94CB050E94BD0538F00E94C4058C
S1130AA020F0952311F00C94B4050C94BA0511248C
S1130AB00C9441050E941E0570F3959FC1F3950F98
S1130AC050E0551F629FF001729FBB27F00DB11DCE
S1130AD0639FAA27F00DB11DAA1F649F6627B00D5E
S1130AE0A11D661F829F2227B00DA11D621F739F47
S1130AF0B00DA11D621F839FA00D611D221F749F55
S1130B003327A00D611D231F849F600D211D822F9B
S1130B10762F6A2F11249F5750409AF0F1F08823C2
S1130B204AF0EE0FFF1FBB1F661F771F881F9150EF
S1130B305040A9F79E3F510580F00C94B4050C94E5
S1130B4041055F3FE4F3983ED4F386957795679526
S1130B50B795F795E7959F5FC1F7FE2B880F911D19
S1130B609695879597F9089597F99F6780E870E0BF
S1130B7060E008959FEF80EC089500240A9416160F
S1130B80170618060906089500240A941216130677
S1130B90140605060895092E0394000C11F4882305
S1130BA052F0BB0F40F4BF2B11F460FF04C06F5F21
S1130BB07F4F8F4F9F4F0895EE0FFF1F0590F491C5
S1130BC0E02D0994FB01DC018D9101908019011045
S1130BD0D9F3990B0895BB274A3031F4992322F4B1
S1130BE0BDE2909581959F4F0C94F705BB27FB01BF
S1130BF05527AA27880F991FAA1FA41710F0A41B12
S1130C0083955051B9F7A05DAA3308F0A95DA1936B
S1130C10009779F7B111B1931192CB010C9410069E
S1130C20DC01FC01672F71917723E1F7329704C04F
S1130C307C916D9370836291AE17BF07C8F30895DA
S1070C40F894FFCF52
S1130C44737461727420696E7432007374617274A3
S1130C5420696E743000313233340074656D703A37
S1130C6420004F4C3A007073737772642069733AAE
S1130C740067617465206F70656E73206E6F770012
S1130C8457524F4E4720505353575244203A28004A
S1130C9474727920616761696E006F70656E206794
S1130CA461746500636C6F73652067617465006FBC
S1130CB470656E20706F6F6C00636C6F7365207069
S1130CC46F6F6C006F70656E206C6976696E672057
S1130CD46C6967687400636C6F7365206C6976690A
S1130CE46E67206C69676874006F70656E20616C50
S1130CF461726D00636C6F736520616C61726D0069
S1130D046F70656E20696E646F6F7200636C6F73CD
S10D0D146520696E646F6F720000C1
S9030000FC
