:100000000C943A000C9457000C9457000C947E0208
:100010000C9457000C9457000C9457000C94570004
:100020000C9457000C9457000C9457000C945700F4
:100030000C9457000C9457000C9457000C945700E4
:100040000C9457000C9457000C9457000C945700D4
:100050000C9457002A010C010E0110011201140129
:10006000160118011A011C011E01200122012401A0
:100070002601280111241FBECFE5D8E0DEBFCDBF89
:1000800010E0A0E6B0E0E8EFF8E002C005900D92C5
:10009000A23AB107D9F720E0A2EAB0E001C01D9270
:1000A000A03BB207E1F70E943B020C947A040C9447
:1000B0000000379A369A089596B1987F96B98031A4
:1000C000B9F038F4843071F0883071F08230F1F496
:1000D00007C0803499F08038A9F08032B9F40AC0A2
:1000E000309A0895319A089586B1836086B908954B
:1000F000329A089586B1856086B9089586B1866082
:1001000086B9089586B1876086B9089586B186B9A3
:100110000895D09887B1807E87B987B187B987B1B4
:10012000806C87B980E80E945C003D9A08953699FA
:10013000FECF85B190E0880F991F880F991F089511
:100140009AB321E030E0082E02C0220F331F0A9438
:10015000E2F7209529232ABB97B1907E97B997B1F2
:10016000892B87B90895E199FECF9FBB8EBB6DBBEC
:10017000E29AE19A0895E199FECF9FBB8EBBE09A87
:100180008DB30895EF92FF920F931F93CF93DF9358
:100190008C017B01EA01209751F0F70161917F0109
:1001A000C8010E94B3000F5F1F4F2197B1F7DF9185
:1001B000CF911F910F91FF90EF900895EF92FF92D2
:1001C0000F931F93CF93DF938C017B01EA0120975C
:1001D00051F0C8010E94BB00F70181937F010F5FBE
:1001E0001F4F2197B1F7DF91CF911F910F91FF9092
:1001F000EF90089587B38B7087BB86B382958F701D
:100200008F5F482F50E0FA013197E031F10518F582
:10021000E65DFF4F0C94360482E3089583E308956E
:1002200081E6089584E3089585E3089586E30895BB
:1002300082E6089587E3089588E3089589E30895A1
:1002400083E608958AE2089580E3089583E208959D
:1002500084E6089581E30895DD98DE98E9EFF0E003
:100260003197F1F700C00000DF9AE9EFF0E0319735
:10027000F1F700C00000982F907F95BBE9EFF0E008
:100280003197F1F700C00000DF98E9EFF0E0319717
:10029000F1F700C00000DF9AE9EFF0E03197F1F7E5
:1002A00000C00000F0E18F9FC001112485BB89EFE1
:1002B00090E00197F1F700C00000DF98E9EFF0E06F
:1002C0003197F1F700C0000008958AB3806E8ABBB1
:1002D00084B3806F84BB82E00E942C0188E20E947C
:1002E0002C018CE00E942C0181E00E942C018CE00A
:1002F0000E942C010895DD9ADE98E9EFF0E0319735
:10030000F1F700C00000DF9AE9EFF0E03197F1F774
:1003100000C00000982F907F95BBE9EFF0E0319787
:10032000F1F700C00000DF98E9EFF0E03197F1F756
:1003300000C00000DF9AE9EFF0E03197F1F700C06C
:100340000000F0E18F9FC001112485BB89EF90E090
:100350000197F1F700C00000DF98E9EFF0E0319776
:10036000F1F700C000000895CF93DF93EC0188817E
:10037000882331F021960E947B0189918111FBCF66
:10038000DF91CF910895823031F0833031F08130A8
:1003900029F4605C03C0605F01C0605B862F8068E9
:1003A0000E942C010895CF93DF93EA010E94C301BC
:1003B000CE010E94B401DF91CF910895CF93DF93D6
:1003C000CDB7DEB760970FB6F894DEBF0FBECDBFD6
:1003D0004AE0BE016F5F7F4F0E944504CE01019647
:1003E0000E94B40160960FB6F894DEBF0FBECDBF79
:1003F000DF91CF91089581E00E942C0108958D9A9C
:100400001DBC1CBC83EC99E097BD86BD8FB5826096
:100410008FBD8EB58A618EBD08951DBC1CBC9BBD71
:100420008ABD8FB580688FBD08958FB58F778FBDDA
:1004300008950E94890080E00E94A0000E94590057
:100440000E949700BC0180E090E00E943B0320E006
:1004500030E040E85EE30E94A1030E940C03862F77
:1004600008950E94890081E00E94A0000E94590026
:100470000E949700089580E884BF84BF78948BB76A
:1004800080628BBF84B7806484BF44E050E060E644
:1004900070E080E190E00E94C2000E9465010E942D
:1004A000FF0187EA91E60197F1F700C00000B89AD2
:1004B000C09A45E650E062E081E00E94D30168E026
:1004C00081E00E94C3010E94190290E00E94DE01B7
:1004D0000E94310290E00E94DE010E9431028436C7
:1004E00010F4C09801C0C09A9FEB27E289E09150B8
:1004F00020408040E1F700C00000DBCF1F920F9248
:100500000FB60F9211242F933F934F935F936F93E6
:100510007F938F939F93AF93BF93CF93DF93EF938B
:10052000FF934DE650E060E080E00E94D301C0916F
:10053000A200D0E00E94FA00C555DF4F8883E09109
:10054000A200F0E0E555FF4F11824BEA50E06AE06F
:1005500080E00E94D3018091A2008F5F843018F464
:100560008093A20046C01092A2002FE986E891E095
:10057000215080409040E1F700C000000E94FB0144
:1005800044E050E063EA70E080E190E00E94DE0029
:1005900063EA70E08BEA90E00E943C04892BA1F4AE
:1005A00088E790E00E94B4018AEF90E00E940D027B
:1005B0002FE382E49FE0215080409040E1F700C0AB
:1005C00000000E94150213C087E890E00E94B40169
:1005D00047E950E063E081E00E94D3012FE38DE022
:1005E00093E0215080409040E1F700C000000E945D
:1005F000FB01FF91EF91DF91CF91BF91AF919F915F
:100600008F917F916F915F914F913F912F910F90BB
:100610000FBE0F901F9018950E94800388F09F577F
:1006200098F0B92F9927B751B0F0E1F0660F771F16
:10063000881F991F1AF0BA95C9F714C0B13091F00C
:100640000E949A03B1E008950C949A03672F782FC3
:100650008827B85F39F0B93FCCF3869577956795D1
:10066000B395D9F73EF490958095709561957F4F3D
:100670008F4F9F4F0895E89409C097FB3EF49095E3
:100680008095709561957F4F8F4F9F4F9923A9F06B
:10069000F92F96E9BB279395F695879577956795FA
:1006A000B795F111F8CFFAF4BB0F11F460FF1BC03E
:1006B0006F5F7F4F8F4F9F4F16C0882311F096E9D1
:1006C00011C0772321F09EE8872F762F05C066237F
:1006D00071F096E8862F70E060E02AF09A95660F38
:1006E000771F881FDAF7880F9695879597F90895F1
:1006F00057FD9058440F551F59F05F3F71F04795D3
:10070000880F97FB991F61F09F3F79F087950895B7
:10071000121613061406551FF2CF4695F1DF08C0D6
:10072000161617061806991FF1CF869571056105F3
:1007300008940895E894BB2766277727CB0197F99B
:1007400008950E94B4030C9425040E94170438F005
:100750000E941E0420F0952311F00C940E040C94BA
:10076000140411240C949B030E94780370F3959F4A
:10077000C1F3950F50E0551F629FF001729FBB2798
:10078000F00DB11D639FAA27F00DB11DAA1F649F34
:100790006627B00DA11D661F829F2227B00DA11DE7
:1007A000621F739FB00DA11D621F839FA00D611D6D
:1007B000221F749F3327A00D611D231F849F600D8E
:1007C000211D822F762F6A2F11249F5750409AF0B7
:1007D000F1F088234AF0EE0FFF1FBB1F661F771F43
:1007E000881F91505040A9F79E3F510580F00C940E
:1007F0000E040C949B035F3FE4F3983ED4F386957C
:1008000077956795B795F795E7959F5FC1F7FE2BAD
:10081000880F911D9695879597F9089597F99F6789
:1008200080E870E060E008959FEF80EC0895002478
:100830000A941616170618060906089500240A9445
:1008400012161306140605060895092E0394000CCB
:1008500011F4882352F0BB0F40F4BF2B11F460FF5A
:1008600004C06F5F7F4F8F4F9F4F0895EE0FFF1FA4
:100870000590F491E02D0994FB01DC018D9101902C
:1008800080190110D9F3990B0895BB274A3031F430
:10089000992322F4BDE2909581959F4F0C945104C9
:1008A000BB27FB015527AA27880F991FAA1FA4174A
:1008B00010F0A41B83955051B9F7A05DAA3308F03E
:1008C000A95DA193009779F7B111B1931192CB0172
:1008D0000C946A04DC01FC01672F71917723E1F726
:1008E000329704C07C916D9370836291AE17BF07FD
:0808F000C8F30895F894FFCF4E
:1008F800313233340074656D70203A2000707373A0
:100908007772642069733A0067617465206F706557
:100918006E73206E6F770057524F4E4720505353D7
:10092800575244203A280074727920616761696ED1
:020938000000BD
:00000001FF
