:100000000C943A000C944F000C944F000C944F0049
:100010000C944F000C944F000C944F000C944F0024
:100020000C944F000C944F000C944F000C944F0014
:100030000C944F000C944F000C944F000C944F0004
:100040000C944F000C944F000C944F000C944F00F4
:100050000C944F00AE00900092009400960098001F
:100060009A009C009E00A000A200A400A600A80088
:10007000AA00AC0011241FBECFE5D8E0DEBFCDBF83
:1000800010E0A0E6B0E0ECEFF3E002C005900D92C6
:10009000A83AB107D9F70E9474010C94FC010C94A2
:1000A0000000A0E1B0E0F0EF60E070E0862FFABB66
:1000B0009D01062E02C0220F331F0A94E2F72095FD
:1000C0002BBBC89B0FC021E030E0922F49B3E22F39
:1000D00050E0022E02C0559547950A94E2F740FD84
:1000E0003FC002C0E0E090E041E050E002C0440FB9
:1000F000551FEA95E2F729B330E024233523232B5B
:10010000D1F38F5F990F990F890F482F50E0FA01B3
:100110003197E031F10588F5E65DFF4F0C94ED0174
:1001200082E3089583E3089581E6089584E30895C2
:1001300085E3089586E3089582E6089587E30895A8
:1001400088E3089589E3089583E608958AE208958F
:1001500080E3089583E2089584E6089581E3089595
:100160002F5F3F4F2430310509F0AFCF6F5F7F4FD6
:100170006430710509F09ACF97CF089594989598B7
:10018000E9EFF0E03197F1F700C00000969AE9EF4F
:10019000F0E03197F1F700C00000982F907F95BBF9
:1001A000E9EFF0E03197F1F700C000009698E9EF31
:1001B000F0E03197F1F700C00000969AE9EFF0E027
:1001C0003197F1F700C00000F0E18F9FC0011124CA
:1001D00085BB89EF90E00197F1F700C00000969889
:1001E000E9EFF0E03197F1F700C00000089581B326
:1001F000806781BB84B3806F84BB82E00E94BE00B5
:1002000088E20E94BE008CE00E94BE0081E00E9455
:10021000BE008CE00E94BE000895949A9598E9EF84
:10022000F0E03197F1F700C00000969AE9EFF0E0B6
:100230003197F1F700C00000982F907F95BBE9EF50
:10024000F0E03197F1F700C000009698E9EFF0E098
:100250003197F1F700C00000969AE9EFF0E031978E
:10026000F1F700C00000F0E18F9FC001112485BBB1
:1002700089EF90E00197F1F700C000009698E9EF50
:10028000F0E03197F1F700C000000895CF93DF93BD
:10029000EC018881882331F021960E940D0189911B
:1002A0008111FBCFDF91CF910895823031F08330FF
:1002B00031F0813029F4605C03C0605F01C0605B95
:1002C000862F80680E94BE000895CF93DF93EA01D5
:1002D0000E945501CE010E944601DF91CF91089501
:1002E00081E00E94BE000895DF92EF92FF920F938B
:1002F0001F93CF93DF9300D000D01F92CDB7DEB70E
:100300000E94F700CE0101967C01D82E0F2D80E6C9
:1003100090E00E94460141E750E060E081E00E94E9
:10032000650168E081E00E94550110E00E945100E3
:10033000212F237030E0F701E20FF31F8083E2E00A
:10034000F0E0EC0FFD1FE20FF31F10821F5F68E06B
:1003500081E00E9455018D2D902F0E94460114309E
:1003600029F79FE926E881E0915020408040E1F79D
:1003700000C000000E9470016AE770E08D2D902F90
:100380000E94F301892BB1F08DE890E00E944601B4
:100390004DE950E063E081E00E9465019FE72AE1BA
:1003A00086E0915020408040E1F700C000000E94AC
:1003B0007001ADCF8FE790E00E94460180E090E0B1
:1003C0000F900F900F900F900F90DF91CF911F9192
:1003D0000F91FF90EF90DF900895EE0FFF1F0590B3
:1003E000F491E02D0994FB01DC018D9101908019BD
:0C03F0000110D9F3990B0895F894FFCF89
:1003FC00656E7465722074686520707373777264AF
:10040C00007073737772643A2000313233340073A6
:10041C0075636365737366756C203A440057524F6D
:10042C004E4720505353575244203A280074727947
:08043C0020616761696E000098
:00000001FF
